{"abi":[{"type":"function","name":"createProduct","inputs":[{"name":"_locationInfo","type":"string","internalType":"string"},{"name":"_productionDate","type":"uint256","internalType":"uint256"},{"name":"_expirationDate","type":"uint256","internalType":"uint256"}],"outputs":[],"stateMutability":"nonpayable"},{"type":"function","name":"deleteProduct","inputs":[{"name":"_productId","type":"uint256","internalType":"uint256"}],"outputs":[],"stateMutability":"nonpayable"},{"type":"function","name":"delivered","inputs":[{"name":"_productId","type":"uint256","internalType":"uint256"}],"outputs":[],"stateMutability":"nonpayable"},{"type":"function","name":"inWarehouse","inputs":[{"name":"_productId","type":"uint256","internalType":"uint256"},{"name":"_newLocation","type":"string","internalType":"string"}],"outputs":[],"stateMutability":"nonpayable"},{"type":"function","name":"products","inputs":[{"name":"","type":"uint256","internalType":"uint256"}],"outputs":[{"name":"id","type":"uint256","internalType":"uint256"},{"name":"locationInfo","type":"string","internalType":"string"},{"name":"productionDate","type":"uint256","internalType":"uint256"},{"name":"backupProductionDate","type":"uint256","internalType":"uint256"},{"name":"expirationDate","type":"uint256","internalType":"uint256"},{"name":"state","type":"uint8","internalType":"enum SupplyChain.State"}],"stateMutability":"view"},{"type":"function","name":"updateProduct","inputs":[{"name":"_productId","type":"uint256","internalType":"uint256"},{"name":"_newLocationInfo","type":"string","internalType":"string"},{"name":"_newProductionDate","type":"uint256","internalType":"uint256"},{"name":"_newExpirationDate","type":"uint256","internalType":"uint256"},{"name":"_newState","type":"uint8","internalType":"enum SupplyChain.State"}],"outputs":[],"stateMutability":"nonpayable"},{"type":"function","name":"viewProductInfo","inputs":[{"name":"_productId","type":"uint256","internalType":"uint256"}],"outputs":[{"name":"","type":"uint256","internalType":"uint256"},{"name":"","type":"string","internalType":"string"},{"name":"","type":"uint256","internalType":"uint256"},{"name":"","type":"uint256","internalType":"uint256"},{"name":"","type":"uint256","internalType":"uint256"},{"name":"","type":"uint8","internalType":"enum SupplyChain.State"}],"stateMutability":"view"},{"type":"event","name":"ProductCreated","inputs":[{"name":"productId","type":"uint256","indexed":true,"internalType":"uint256"},{"name":"locationInfo","type":"string","indexed":false,"internalType":"string"},{"name":"productionDate","type":"uint256","indexed":false,"internalType":"uint256"},{"name":"backupProductionDate","type":"uint256","indexed":false,"internalType":"uint256"},{"name":"expirationDate","type":"uint256","indexed":false,"internalType":"uint256"}],"anonymous":false},{"type":"event","name":"ProductDeleted","inputs":[{"name":"productId","type":"uint256","indexed":true,"internalType":"uint256"}],"anonymous":false},{"type":"event","name":"ProductStateChanged","inputs":[{"name":"productId","type":"uint256","indexed":true,"internalType":"uint256"},{"name":"newState","type":"uint8","indexed":false,"internalType":"enum SupplyChain.State"},{"name":"newLocation","type":"string","indexed":false,"internalType":"string"}],"anonymous":false},{"type":"event","name":"ProductUpdated","inputs":[{"name":"productId","type":"uint256","indexed":true,"internalType":"uint256"},{"name":"locationInfo","type":"string","indexed":false,"internalType":"string"},{"name":"productionDate","type":"uint256","indexed":false,"internalType":"uint256"},{"name":"backupProductionDate","type":"uint256","indexed":false,"internalType":"uint256"},{"name":"expirationDate","type":"uint256","indexed":false,"internalType":"uint256"},{"name":"state","type":"uint8","indexed":false,"internalType":"enum SupplyChain.State"}],"anonymous":false}],"bytecode":{"object":"0x6080604052348015600e575f5ffd5b506110478061001c5f395ff3fe608060405234801561000f575f5ffd5b506004361061007b575f3560e01c8063ade1f11111610059578063ade1f111146100ec578063cac1d47e14610108578063ed90c7b714610124578063f32abd39146101405761007b565b80634b5e41081461007f5780637acc0b201461009b5780637bf12b1c146100d0575b5f5ffd5b61009960048036038101906100949190610727565b610175565b005b6100b560048036038101906100b09190610727565b6101f6565b6040516100c796959493929190610844565b60405180910390f35b6100ea60048036038101906100e591906109d6565b6102bf565b005b61010660048036038101906101019190610a65565b6103e1565b005b610122600480360381019061011d9190610af8565b610498565b005b61013e60048036038101906101399190610727565b610529565b005b61015a60048036038101906101559190610727565b6105a9565b60405161016c96959493929190610844565b60405180910390f35b5f5f5f8381526020019081526020015f2090506002816005015f6101000a81548160ff021916908360028111156101af576101ae6107d1565b5b0217905550817fd18c1fbf4b2cac2c6110b1c857bc62712c1783006d8e242426bf5b3203e6a04e6002836001016040516101ea929190610c42565b60405180910390a25050565b5f602052805f5260405f205f91509050805f01549080600101805461021a90610b7f565b80601f016020809104026020016040519081016040528092919081815260200182805461024690610b7f565b80156102915780601f1061026857610100808354040283529160200191610291565b820191905f5260205f20905b81548152906001019060200180831161027457829003601f168201915b505050505090806002015490806003015490806004015490806005015f9054906101000a900460ff16905086565b5f4290506040518060c0016040528060015481526020018581526020018481526020018281526020018381526020015f6002811115610301576103006107d1565b5b8152505f5f60015481526020019081526020015f205f820151815f015560208201518160010190816103339190610dfe565b5060408201518160020155606082015181600301556080820151816004015560a0820151816005015f6101000a81548160ff0219169083600281111561037c5761037b6107d1565b5b02179055509050506001547fea4faa671386bd1abe2e35b3ca427cb5106169fb68890e71b4e911682a346b21858584866040516103bc9493929190610ecd565b60405180910390a260015f8154809291906103d690610f44565b919050555050505050565b5f5f5f8781526020019081526020015f209050848160010190816104059190610dfe565b5083816002018190555042816003018190555082816004018190555081816005015f6101000a81548160ff02191690836002811115610447576104466107d1565b5b0217905550857f892d7cb170c29ec8323d29a94960a03b0adb42489f57e57638e84f03656724a7868684600301548787604051610488959493929190610f8b565b60405180910390a2505050505050565b5f5f5f8481526020019081526020015f2090506001816005015f6101000a81548160ff021916908360028111156104d2576104d16107d1565b5b0217905550818160010190816104e89190610dfe565b50827fd18c1fbf4b2cac2c6110b1c857bc62712c1783006d8e242426bf5b3203e6a04e60018460405161051c929190610fe3565b60405180910390a2505050565b5f5f8281526020019081526020015f205f5f82015f9055600182015f61054f919061068b565b600282015f9055600382015f9055600482015f9055600582015f6101000a81549060ff02191690555050807fc341cf326465fe622f86c468249e8c0cb03ed23ba376a6a34863a1374ac7d76960405160405180910390a250565b5f60605f5f5f5f5f5f5f8981526020019081526020015f209050805f015481600101826002015483600301548460040154856005015f9054906101000a900460ff168480546105f790610b7f565b80601f016020809104026020016040519081016040528092919081815260200182805461062390610b7f565b801561066e5780601f106106455761010080835404028352916020019161066e565b820191905f5260205f20905b81548152906001019060200180831161065157829003601f168201915b505050505094509650965096509650965096505091939550919395565b50805461069790610b7f565b5f825580601f106106a857506106c5565b601f0160209004905f5260205f20908101906106c491906106c8565b5b50565b5b808211156106df575f815f9055506001016106c9565b5090565b5f604051905090565b5f5ffd5b5f5ffd5b5f819050919050565b610706816106f4565b8114610710575f5ffd5b50565b5f81359050610721816106fd565b92915050565b5f6020828403121561073c5761073b6106ec565b5b5f61074984828501610713565b91505092915050565b61075b816106f4565b82525050565b5f81519050919050565b5f82825260208201905092915050565b8281835e5f83830152505050565b5f601f19601f8301169050919050565b5f6107a382610761565b6107ad818561076b565b93506107bd81856020860161077b565b6107c681610789565b840191505092915050565b7f4e487b71000000000000000000000000000000000000000000000000000000005f52602160045260245ffd5b6003811061080f5761080e6107d1565b5b50565b5f81905061081f826107fe565b919050565b5f61082e82610812565b9050919050565b61083e81610824565b82525050565b5f60c0820190506108575f830189610752565b81810360208301526108698188610799565b90506108786040830187610752565b6108856060830186610752565b6108926080830185610752565b61089f60a0830184610835565b979650505050505050565b5f5ffd5b5f5ffd5b7f4e487b71000000000000000000000000000000000000000000000000000000005f52604160045260245ffd5b6108e882610789565b810181811067ffffffffffffffff82111715610907576109066108b2565b5b80604052505050565b5f6109196106e3565b905061092582826108df565b919050565b5f67ffffffffffffffff821115610944576109436108b2565b5b61094d82610789565b9050602081019050919050565b828183375f83830152505050565b5f61097a6109758461092a565b610910565b905082815260208101848484011115610996576109956108ae565b5b6109a184828561095a565b509392505050565b5f82601f8301126109bd576109bc6108aa565b5b81356109cd848260208601610968565b91505092915050565b5f5f5f606084860312156109ed576109ec6106ec565b5b5f84013567ffffffffffffffff811115610a0a57610a096106f0565b5b610a16868287016109a9565b9350506020610a2786828701610713565b9250506040610a3886828701610713565b9150509250925092565b60038110610a4e575f5ffd5b50565b5f81359050610a5f81610a42565b92915050565b5f5f5f5f5f60a08688031215610a7e57610a7d6106ec565b5b5f610a8b88828901610713565b955050602086013567ffffffffffffffff811115610aac57610aab6106f0565b5b610ab8888289016109a9565b9450506040610ac988828901610713565b9350506060610ada88828901610713565b9250506080610aeb88828901610a51565b9150509295509295909350565b5f5f60408385031215610b0e57610b0d6106ec565b5b5f610b1b85828601610713565b925050602083013567ffffffffffffffff811115610b3c57610b3b6106f0565b5b610b48858286016109a9565b9150509250929050565b7f4e487b71000000000000000000000000000000000000000000000000000000005f52602260045260245ffd5b5f6002820490506001821680610b9657607f821691505b602082108103610ba957610ba8610b52565b5b50919050565b5f819050815f5260205f209050919050565b5f8154610bcd81610b7f565b610bd7818661076b565b9450600182165f8114610bf15760018114610c0757610c39565b60ff198316865281151560200286019350610c39565b610c1085610baf565b5f5b83811015610c3157815481890152600182019150602081019050610c12565b808801955050505b50505092915050565b5f604082019050610c555f830185610835565b8181036020830152610c678184610bc1565b90509392505050565b5f6020601f8301049050919050565b5f82821b905092915050565b5f60088302610cba7fffffffffffffffffffffffffffffffffffffffffffffffffffffffffffffffff82610c7f565b610cc48683610c7f565b95508019841693508086168417925050509392505050565b5f819050919050565b5f610cff610cfa610cf5846106f4565b610cdc565b6106f4565b9050919050565b5f819050919050565b610d1883610ce5565b610d2c610d2482610d06565b848454610c8b565b825550505050565b5f5f905090565b610d43610d34565b610d4e818484610d0f565b505050565b5b81811015610d7157610d665f82610d3b565b600181019050610d54565b5050565b601f821115610db657610d8781610baf565b610d9084610c70565b81016020851015610d9f578190505b610db3610dab85610c70565b830182610d53565b50505b505050565b5f82821c905092915050565b5f610dd65f1984600802610dbb565b1980831691505092915050565b5f610dee8383610dc7565b9150826002028217905092915050565b610e0782610761565b67ffffffffffffffff811115610e2057610e1f6108b2565b5b610e2a8254610b7f565b610e35828285610d75565b5f60209050601f831160018114610e66575f8415610e54578287015190505b610e5e8582610de3565b865550610ec5565b601f198416610e7486610baf565b5f5b82811015610e9b57848901518255600182019150602085019450602081019050610e76565b86831015610eb85784890151610eb4601f891682610dc7565b8355505b6001600288020188555050505b505050505050565b5f6080820190508181035f830152610ee58187610799565b9050610ef46020830186610752565b610f016040830185610752565b610f0e6060830184610752565b95945050505050565b7f4e487b71000000000000000000000000000000000000000000000000000000005f52601160045260245ffd5b5f610f4e826106f4565b91507fffffffffffffffffffffffffffffffffffffffffffffffffffffffffffffffff8203610f8057610f7f610f17565b5b600182019050919050565b5f60a0820190508181035f830152610fa38188610799565b9050610fb26020830187610752565b610fbf6040830186610752565b610fcc6060830185610752565b610fd96080830184610835565b9695505050505050565b5f604082019050610ff65f830185610835565b81810360208301526110088184610799565b9050939250505056fea26469706673582212206c85cb31e48ab60ebf2df0cbc624e6e9a35a3948b1fb14a03f668b53c84a109664736f6c634300081d0033","linkReferences":{}},"methodIdentifiers":{"createProduct(string,uint256,uint256)":"7bf12b1c","deleteProduct(uint256)":"ed90c7b7","delivered(uint256)":"4b5e4108","inWarehouse(uint256,string)":"cac1d47e","products(uint256)":"7acc0b20","updateProduct(uint256,string,uint256,uint256,uint8)":"ade1f111","viewProductInfo(uint256)":"f32abd39"},"id":16}